:020000040800F2
:1000000040090020910200084144000875330008AF
:10001000A53F0008B10800089D4700080000000047
:1000200000000000000000000000000085450008FE
:100030007D0B00080000000081450008894500088C
:10004000AB020008AB020008AB020008AB020008DC
:10005000AB020008AB020008810B0008950B0008FA
:10006000A90B0008AB020008AB020008AB020008B5
:10007000AB020008AB020008AB020008AB020008AC
:10008000AB020008AB020008AB020008AB0200089C
:10009000B5080008AB020008AB020008AB0200087C
:1000A000AB02000849460008AB020008AB0200089A
:1000B000AB020008AB020008AB020008AB0200086C
:1000C000AB020008AB020008AB020008AB0200085C
:1000D000AB020008AB020008AB0200080000000001
:1000E000AB020008AB020008AB020008AB0200083C
:1000F000AB020008AB020008AB020008AB0200082C
:1001000000000000AB020008AB020008AB020008D0
:100110000000000000000000AB020008AB02000875
:10012000AB020008AB020008AB020008AB020008FB
:10013000AB020008AB020008AB020008AB020008EB
:10014000D1080008AB020008AB020008AB020008AF
:10015000AB020008AB020008AB020008AB020008CB
:10016000AB020008AB020008000000000000000025
:10017000000000000000000000000000000000007F
:10018000AB020008AB020008000000000000000005
:10019000AB020008AB0200080000000000000000F5
:1001A000000000000000000000000000000000004F
:1001B000000000000000000000000000AB0200088A
:1001C000AB02000800F002F800F052F814A696E81E
:1001D000000CB244B344DA4501D100F049F8BAE862
:1001E0000F000FA696E83000A5EB040504EB060708
:1001F000AAEB0704A7F101074FEA15154FEA3414DB
:10020000A4F10104AC4201D300F032F813F0010F65
:1002100018BFFB1A43F0010300F001F8DBE71847B1
:10022000CC470000EC470000103A24BF78C878C1E2
:10023000FAD8520724BF30C830C144BF04680C60EC
:1002400070470000704700000023002400250026AE
:10025000103A28BF78C1FBD8520728BF30C148BF29
:100260000B6070471FB504F07FFB1FBD10B510BDBC
:1002700000F0E4F81146FFF7F5FF04F091FA00F002
:1002800002F903B4FFF7F2FF03BC00F005F9000028
:100290000948804709480047FEE7FEE7FEE7FEE71A
:1002A000FEE7FEE7FEE7FEE7FEE7FEE70448054956
:1002B000054A064B7047000035460008C501000896
:1002C0004003002040090020400500204005002098
:1002D00053EA020C00F069802DE9F04B4FF0000664
:1002E000002B1FBFB3FA83F503FA05F424FA05F6D1
:1002F0005E4012BF1643B2FA82F502FA05F4C5F168
:1003000020051EBF22FA05FC44EA0C04203556EAFB
:10031000044C4FEA144418BF641C4FF000084FF01F
:100320000009904271EB030C39D3002919BFB1FACF
:1003300081F701FA07F6B0FA80F700FA07F6C7F17D
:1003400020071EBF20FA07FC46EA0C062037B6FB42
:10035000F4FCA7EB0507103F07F01F0BCBF12006BD
:100360002CFA06F60CFA0BFB44BFB3460026202FEE
:10037000A4BF5E464FF0000B5BEA060C08BF4FF0CF
:10038000010B19EB0B0948EB0608ABFB027C06FBE3
:1003900002CC0BFB03CCC01B71EB0C01C1E70B467D
:1003A000024641464846BDE8F08B13B5084318BFE6
:1003B0004FF0FF300146AFF30080BDE81C407047AE
:1003C0004FF0000200B5134694469646203922BFEE
:1003D000A0E80C50A0E80C50B1F12001BFF4F7AF39
:1003E000090728BFA0E80C5048BF0CC05DF804EB1B
:1003F000890028BF40F8042B08BF704748BF20F889
:10040000022B11F0804F18BF00F8012B7047704786
:100410007047704710B500F009F8006810BD10B5BE
:10042000044600F003F8046010BD00000048704767
:100430001000002000487047100000207546FFF7AC
:10044000F9FFAE4605006946534620F00700854691
:1004500018B020B5FFF72AFFBDE820404FF0000696
:100460004FF000074FF000084FF0000BAC46ACE82F
:10047000C009ACE8C009ACE8C009ACE8C00921F08B
:1004800007018D46704710B50446AFF30080204643
:10049000BDE81040FFF7F5BE01491820ABBEFEE7EE
:1004A000260002007047000080B584B000208DF85F
:1004B0000F0001200DF10F01CDE9001040F24C209A
:1004C0004FF0640CC2F200006C210B220123CDF826
:1004D00008C001F0DDFB04B080BD0000F0B585B0C0
:1004E000044602260DF10E00CDE9000640F24C2034
:1004F0006425C2F200006C210C220123029501F058
:10050000C7FB18B10021217405B0F0BD9DF80E00A5
:100510009DF80F100E2260F30B2104A82180CDE975
:10052000000640F24C20C2F200006C21012302952B
:10053000012601F0ADFB18B10021217405B0F0BD1A
:100540009DF810009DF811109FED261A60F30B2105
:1005500000EE101A9FED253AB8EE400A9FED222AD0
:1005600020EE011A20EE030A40F24C2521EE021A79
:1005700020EE020A04F10F00C2F20005618084ED52
:10058000011A84ED020A6427CDE9000628466C2191
:100590000B220123029701F07BFB04F10E00CDE951
:1005A000000628466C211A220123029701F070FBF5
:1005B00002200DF11201CDE9001028466C211B220A
:1005C0000123029701F064FB30B99DF812009DF8F9
:1005D000131060F30B21A18100200121217405B0CB
:1005E000F0BD00BF0000B44300008039F90FC940DE
:1005F000B0B5002540F2F424C0F80250C2F2000465
:10060000032122680170506C002140F400405064C6
:100610002046556302F0A2FD2046002102F0C4F9F5
:10062000206804218563204602F098FD20460421BD
:1006300002F0BAF920680821C563204602F08EFD59
:1006400020460821BDE8B04002F0AEB9B0B5072998
:10065000044600D0F1B940F2F425C2F20005284664
:10066000002102F003FE2846002102F01DFA284670
:10067000042102F0FBFD2846042102F015FA284669
:10068000082102F0F3FD2846082102F00DFA0120AE
:100690002075B0BD607844F6E41244F6DC13C0F671
:1006A0000002C0F60003002808BF13466288585CA9
:1006B000A1711146E07100F02DF801F031FA2169C5
:1006C000884208D0411A01EB410149004EF66022F0
:1006D000B2FBF1F12181E1682061481CE060B0BD0E
:1006E00041888288914201D2012202E003D94FF66B
:1006F000FF72114441800278013A012A88BF704795
:100700008279013A052A03D8C07989B200F002B88B
:100710007047000070B540F2F424C2F200040D46A8
:1007200006462046002102F0A1FD2046002102F0ED
:10073000BBF92046042102F099FD2046042102F075
:10074000B3F92046082102F091FD2046082102F06D
:10075000ABF9052E88BF70BDDFE806F00416260849
:10076000212A00BF2068002445632FE0206804216F
:100770008563204602F0F2FC2046042102F014F9C1
:1007800020680024446321E020680021456320465E
:10079000002502F0E3FC2046002102F005F9206864
:1007A0000824C56312E000BF206885630DE000BF28
:1007B00020680821C563204602F0D0FC20460821AD
:1007C00002F0F2F8206800218163042440F2F4254D
:1007D000C2F200052846214602F0C0FC2846214608
:1007E000BDE8704002F0E0B80021C0E90011C0E9A6
:1007F0000211C0E9041170474170704740F2E732BE
:10080000914238BF0A46828070470000017804296F
:1008100008BF704740F2F4220121C2F200020170C9
:10082000002112684180516C41F40041516481798A
:100830004A1ED2B2052A03D802220270FFF706BF71
:1008400070470000002240F2F421C0F80220C2F2FA
:10085000000109680270086A41F21112104208D1C1
:10086000086A40F24442104203D1486C20F4004030
:10087000486410B540F2F424C2F20004204600217E
:1008800002F0F4FC2046002102F00EF9204604217B
:1008900002F0ECFC2046042102F006F92046082173
:1008A00002F0E4FC20460821BDE8104002F0FCB84C
:1008B000FEE7000010B540F2FC14C2F2000420462E
:1008C00000F0B0FD2046BDE8104003F073BB00000F
:1008D00010B540F22424C2F20004204600F0A2FD2C
:1008E0002046BDE8104003F065BB000080B58AB02B
:1008F00052010591002192B2CDE900214FF6E0723C
:100900000691CDE9022104910E210068012309918D
:1009100069460793089300F067FC0AB080BD0000A9
:10092000B0B50C46054604305821FFF749FD0020BC
:10093000E86020462C6000F0B9FF002818BFB0BD69
:1009400020460221BDE8B04000F0E4BB014690F82B
:100950004C0000284FF0000008BF70474A6D81F836
:100960004C00C86901324A657047000010B5034663
:10097000044653F8400B04F11C02002100F0A6FCD1
:10098000002804BF012084F84C0010BDF0B581B0F0
:10099000054605F8381F044640F203102E4646F877
:1009A000340D082045F8240C00206A70C5F80200B8
:1009B000E88001F0B5F800F10A0700BF206800F0F8
:1009C0001DFD38B901F0ACF8B842F7D90220582122
:1009D0000BE000BF234653F8480B31462A4600F08F
:1009E000B1FB5821002808BF5021625801326250E3
:1009F00001B0F0BDF0B581B00446254605F8381FBA
:100A00004FF480712E4646F8341D0821100A1F0A43
:100A100045F8241C00216970A870EA702F716B7171
:100A2000E98001F07DF800F10A0700BF206800F0BE
:100A3000E5FC38B901F074F8B842F7D90220582122
:100A40000BE000BF234653F8480B31462A4600F01E
:100A500079FB5821002808BF5021625801326250AA
:100A600001B0F0BDF0B581B0B2EE042A20EE020A6A
:100A7000BDEEC00A044610EE100A20EE820ABDEE5A
:100A8000C00A10EE101A21EE020A030A2546BDEE36
:100A9000C00A05F8383F10EE102A40F201132E4626
:100AA0000F0A4FEA122C46F8343D082368700020E4
:100AB00045F8243CAF70E97085F804C06A71E8809D
:100AC00001F02EF800F10A07206800F097FC38B911
:100AD00001F026F8B842F7D9022058210BE000BFF8
:100AE000234653F8480B31462A4600F02BFB582189
:100AF000002808BF502162580132625001B0F0BD99
:100B0000F0B581B0B2EE041A20EE010ABDEEC00AC3
:100B1000044610EE100A020A254605F8382F4FF455
:100B200081722E460B0A46F8342D08226870002088
:100B300045F8242CAB70E970686000F0F1FF00F11B
:100B40000A0700BF206800F059FC38B900F0E8FF40
:100B5000B842F7D9022058210BE000BF234653F8D2
:100B6000480B31462A4600F0EDFA5821002808BF0C
:100B7000502162580132625001B0F0BD7047000050
:100B800080B5012000F0E4FE0120BDE8804003F0C4
:100B9000A3BA000080B5022000F0DAFE0220BDE812
:100BA000804003F099BA000080B5042000F0D0FE28
:100BB0000420BDE8804003F08FBA000072B600BF89
:100BC000FEE7000070B581B00022009290F83C2052
:100BD000012A03D1022001B070BD00BFD1F800E0AE
:100BE00001221FFA8EFC4FEA4C0380F83C200EEBEA
:100BF0004E0213FA8EF31024BEF1090F88BFA3F141
:100C00001E0288BF0C24036807251E59954026EA5A
:100C100005051D518D681E5905FA02F232431A511D
:100C20004968062906D801EB81014A1F194651F887
:100C3000345F0EE00C2901EB810105D8A1F12302FC
:100C4000194651F8305F04E0A1F14102194651F80C
:100C50002C5F1F24944025EA04040C600CFA02F275
:100C60000C6842F2043CC4F2010C2243ACF541741E
:100C7000A3420A603ED1BEF1120F07D1DCF800108A
:100C800041F48001CCF8001034E000BF2EF00101E7
:100C900010292FD1DCF80010BEF1100F41F4000133
:100CA000CCF8001026D140F20801C2F20001096818
:100CB0004DF68362C4F21B32A1FB0212910C01EBD0
:100CC0008101490000910099A1B100990139009179
:100CD000009979B1009901390091009951B10099B9
:100CE00001390091009929B10099013900910099C9
:100CF0000029EAD1002180F83C10002001B070BD2D
:100D00000068C06C70470000002804BF01207047D5
:100D100010B5016C00293DD0016CC90645D4016CA9
:100D200041F202129143023142F204320164C4F2F0
:100D30000102116821F440311160136890E812102B
:100D40002343D0F810E013604A68012422F4807233
:100D50004A604A68C0F6007442EA0E224A604A6855
:100D600022F040724A604A6842EA0C024A608A688D
:100D700022F400628A60C2688B681A438A60826AC1
:100D80008B68A24223F070638B608B6810D123F0D4
:100D9000405216E0044600F065F8204600216164E8
:100DA00084F83C10016CC906B9D5012153E000BF9D
:100DB0001A438A608A6822F040528A60C26A8B684D
:100DC0001A438A608A6822F002028A608A68037E77
:100DD00090F8204042EA43028A604A6884B142F4B3
:100DE00000624A604A684EF2000322F460424A60A0
:100DF000426ACFF6FF734C6803EB4232224301E0B4
:100E000022F400624A60CA6A40F2000C22F47002C6
:100E1000CA62C3694269CFF6F07CCC6A0CEB03531B
:100E20002343CB628B6823F400738B6090F83030DF
:100E30008C6844EA43238B608B6823F480638B6067
:100E40008B6843EA82228A6000214164026C01239C
:100E500063F301020264002280F83C20BDE81040E8
:100E60000846704780B586B042F200010068C4F2BF
:100E70000101002288420592CDE9032202920192EB
:100E800002D006B080BD00BF43F630000092C4F22D
:100E90000200436943F480734361436903F4807340
:100EA0000093009B0092036843F001030360006815
:100EB00000F0010000900098202001900320CDE96F
:100EC000020201F5604001A900F04EFD06B080BDB0
:100ED00070B5044600680D468268520544BF8068BC
:100EE0005FEAC05038D400F01BFE21680A68920700
:100EF00049D40646681C3CD0DDB90868800721D576
:100F0000086880073FD4086880071BD508688007F9
:100F100039D40868800715D50868800733D4086875
:100F200080070FD508688007E7D52CE008688007A0
:100F300029D400F0F5FD801B2168A842F6D9086885
:100F40008007F3D4206C40F004002064002084F873
:100F50003C00032070BD00BF206C40F020002064E6
:100F6000002084F83C00012070BD00BF08688007A5
:100F700009D40868800706D4086880075CBF086841
:100F80005FEA8070F2D56FF012000860206C40F4C8
:100F900000702064886810F0405F01D0002070BDB0
:100FA000207E0028FAD1C86A10F4700F02D0886839
:100FB0004005F3D4206C20F480702064206CC004C1
:100FC000ECD4206C40F001002064002070BD0000D3
:100FD00010B581B00021009190F83C10012903D197
:100FE000022001B010BD00BF0468012180F83C1050
:100FF000214651F8083FDB0729D10B684DF6836283
:1010000043F001030B6040F20803C2F200031B68C7
:10101000C4F21B32A3FB02239A0C02EB42020092A1
:10102000009AA2B1009A013A0092009A7AB1009A0D
:10103000013A0092009A52B1009A013A0092009A45
:101040002AB1009A013A0092009A002AEAD10A686D
:10105000036CD2070CD143F01001016400F144018C
:1010600001200A6810430860002001B010BD00BFD5
:1010700040F2017223EA020202F5807202646268A1
:10108000520504D5026C012363F30D320264026C35
:101090004FF0000C0023D20444BF426C22F0060340
:1010A00042F2000E436480F83CC06FF02200C4F2AC
:1010B000010E2060DEF80403C00609D074450BD190
:1010C000DEF8080010F0405F06D14FF08040C8E71E
:1010D000086810F0405FF8D0002001B010BD00009B
:1010E00090F83C10012904BF0220704701688A680B
:1010F00022F001028A608968C90705D1016C41F2BA
:101100000112914301310164002180F83C1000205C
:101110007047000090F82020013A012A08D80068A2
:1011200000F114020020136819431160704700BFDA
:1011300000F1240201204FF480211368194311604B
:101140007047000010B590F820E0D0F800C0AEF174
:10115000010EBEF1010FDCF808E011D81EF0E05FCF
:1011600018D0CEF301640120A04018608B68DBB179
:10117000D1F804E0C86840EACE0040EA030E17E068
:1011800000F1240301204FF480211A6811431960F3
:1011900010BD00BF00F1240301204FF400111A68B4
:1011A0001143196010BD00BF0868CB6843EA405E78
:1011B0000CF5C07000EB0413240140F804E00C6946
:1011C000184640F8044F097D012903D1016841F414
:1011D0008071016050680121D8601068986000201B
:1011E0001A681143196010BD90F82020013A012AB5
:1011F00030D8B0B546F20060C4F20000026842F098
:1012000001020260026822F47C520260D1F814E00C
:10121000CC694A6A0368012C43EA022202600EF09C
:101220001F024FF0010303FA02F2C3696FEA020CD6
:1012300023EA0203C36113D02CBBC36803EA0C0387
:10124000C360CB688C8844EA034300EBCE0423647C
:101250000B4611E0416A41F4802141620120704750
:10126000C3681343C3600B688C8844EA034300EBF4
:10127000CE04236401F10C038C681B8843EA044309
:1012800000EBCE04636443688D6943EA0204D1F83D
:1012900010E0096A002D08BF03EA0C0444604369AA
:1012A000BEF1000F43EA020408BF03EA0C0401295F
:1012B000446102D1C1691143C161016821F001019A
:1012C00001600020B0BD000070470000B0B590F88C
:1012D0002040013C012C7DD8D0F800C000290CBF73
:1012E000DCF80C40DCF81040A4077DD00CF5D87574
:1012F0004FEA011C55F80C4014F00404946055F8B2
:101300000CE005EB011C19BF4FEADE0555604FEA02
:101310005E551560DCF80050E64605F00205D56024
:101320005EF8044F24075ABFDEF8004004F00F04B3
:1013300008241461DEF800400029C4F307249461F6
:10134000DEF800504FEA15455561DCF808201A70A8
:10135000026802EB0112D2F8B8214FEA12225A7049
:10136000026802EB0112D2F8B8214FEA12429A70D9
:10137000026802EB0112D2F8B8214FEA1262DA7069
:10138000026802EB0112D2F8BC211A71026802EB6A
:101390000112D2F8BC214FEA12225A71026802EB04
:1013A0000112D2F8BC214FEA12429A71026802EB94
:1013B0000112D2F8BC214FEA1262DA7100680CBF48
:1013C00000F10C0100F11001002020220B681A43EB
:1013D0000A60B0BD00F1240101204FF480220B68A7
:1013E0001A430A60B0BD00BF00F1240101204FF490
:1013F00000120B681A430A60B0BD000090F820107C
:101400000139012984BF0020704700688168826823
:101410008068C1F38061C2F3C0621144C0F3007000
:10142000084470472DE9F04F81B0044600684669D2
:10143000D0F804908768D0F80CB0D0F810A0D0F89D
:101440001880F10704D1002530071DD424E000BF27
:10145000F90710D00121BA07816009D4780700F19B
:10146000AF80380700F1B680204600F04DFA02E068
:10147000204600F04BFA0025F80500F18780F803BC
:1014800000F1B180300707D51BF0100004D02068B0
:1014900045F400751021C160700708D51BF00800E5
:1014A00005D020680821C160204600F0F5F9B0079A
:1014B00006D52068C068800702D0204600F0EEF90B
:1014C000700607D51AF0100004D0206845F4806536
:1014D00010210161B00608D51AF0080005D0206877
:1014E00008210161204600F0DBF9F00606D52068EE
:1014F0000069800702D0204600F0D4F9B00308D577
:1015000019F0100005D0206810214160204600F03D
:10151000CBF9F00308D519F0080005D020680821A0
:101520004160204600F0FCF9300440F19B805FEA06
:10153000497040F1948006F4807008EA1020284336
:101540005FEA8871014648BF41F00201B20558BF09
:1015500001465FEA48700D4648BF45F00405700536
:1015600058BF0D46300540F17A8018F0700000F049
:1015700076801038000905286CD8DFE800F0036594
:101580005D61596945F0080564E000BF20684FF4CB
:101590008071BA0581600BD4780515D438051DD447
:1015A000204600F0B5F9F8037FF56CAF1BE000BFF3
:1015B000204600F0AFF9F8037FF564AF13E000BFF9
:1015C0004FF4006558E700BF05F50055F8037FF5B7
:1015D00059AF08E04FF480554EE700BF05F5804550
:1015E000F8037FF54FAF20684FF48031BA03816074
:1015F0000AD4780310D4380314D4204600F08CF9B0
:1016000030073FF541AF47E7204600F087F9300744
:101610003FF53AAF40E700BF05F5004530073FF51D
:1016200033AF39E705F5803530073FF52DAF33E7A8
:1016300045F080050EE000BF45F020050AE000BF40
:1016400045F0400506E000BF45F0100502E000BF90
:1016500045F480752068816921F0700181612068FE
:101660000421416055B1606A40EA0501204661628B
:1016700001B0BDE8F04FFFF727BE00BF01B0BDE8E5
:10168000F08F0000002804BF01207047B0B5044669
:1016900090F8200010B9204600F06EF8206801682C
:1016A00041F00101016000F03BFA05462068416805
:1016B000C90705D100F034FA401B0B28F6D310E01F
:1016C000016821F00201016000F02AFA054600BF1E
:1016D0002068416889070DD500F022FA401B0B28CD
:1016E000F6D3606A052140F400306062012084F87E
:1016F0002010B0BD217E0268012922F0800208BFBF
:1017000080320260617E0268012922F0400208BF37
:1017100040320260A17E0268012922F0200208BF47
:1017200020320260E17E0268012922F0100218BF17
:1017300010320260217F0268012922F0080208BFEE
:1017400008320260617F0268012922F0040208BFAA
:1017500004320260D4E901C2D4E9033561691A4355
:101760002A431143ACF101021143C1610020012160
:10177000606284F82010B0BD10B586B0006846F6EF
:101780000001C4F2000188424FF000010591CDE94B
:101790000311CDE9011131D046F20041C4F200013C
:1017A000884276D140F27001C2F200010A6843F625
:1017B0004000C4F20200531C0B6052B9002100919A
:1017C000016841F000710160016801F00071009151
:1017D00000990021009150F8101C142441F00101DF
:1017E00040F8101C50F8100C4FF4C05100F00100EC
:1017F000009000980020C4F2020036E040F2700130
:10180000C2F200010A6843F64000C4F20200531C11
:101810000B6052B900210091016841F00071016034
:10182000016801F0007100910099002100910268A7
:10183000402442F080620260026802F080620092FE
:10184000009A009150F8101C41F0020140F8101C61
:1018500050F8100C4FF4405100F002000090009836
:101860000020C4F2020000F5806001910221029183
:1018700000210391032104910921059101A900F0A0
:1018800073F820460221002200F0D4FC204600F02C
:10189000BFFC06B010BD00007047000002F08ABB1C
:1018A000704700007047000070470000B0B5044664
:1018B00090F8200001281DD1022084F82000206823
:1018C000016821F00101016000F02AF9054600BF1E
:1018D00020684068C00713D000F022F9401B0B2895
:1018E000F6D3606A40F400306062052084F820007E
:1018F0000120B0BD606A40F4002060620120B0BDEC
:1019000000206062B0BD000070470000704700001A
:1019100070470000704700007047000070470000EB
:1019200070470000B0B5044600F0FAF8054640F2F2
:101930000000C2F200000078611C18BF044400BF20
:1019400000F0EEF8401BA042FAD3B0BD7047000093
:1019500043F61441C4F201010A68024214BF086050
:101960007047FFF7F3BF00002DE9F04F83B043F657
:10197000004E00F1200240F60007C4F2010E009272
:10198000C4F20207072200254FF000084FF0000BB9
:10199000B84208BF0222019241E000BF05F00C03EB
:1019A0000F269E402CEA060604FA03F34FEA9B0238
:1019B000334347F82230DEF808204B6842EA0A0732
:1019C00043F60C44DE0258BF22EA0A07CEF808703C
:1019D000C4F2010422689E0242EA0A0758BF22EAC2
:1019E0000A072760DEF804209E0342EA0A0758BF70
:1019F00022EA0A07CEF80470DEF80020DB0342EA90
:101A00000A0758BF22EA0A07CEF800700BF1010B53
:101A100008F10208BBF1100F05F1040576D00C683F
:101A2000012202FA0BFC14EA0C0AEFD04F680322E1
:101A300007F00304661E02FA08F2012E6FEA02099B
:101A400012D88268CE6802EA090206FA08F6324322
:101A500082604268C7F3001622EA0C0206FA0BF60F
:101A60003243426004E000BF032C01D103241EE096
:101A7000C2688E6802EA090206FA08F63243022CAE
:101A8000C26014D16FF00302009C02EA5B0205F011
:101A90001C060F2354F802C003FA06F70B692CEA60
:101AA0000707B3403B43A3504F6807F003040268A5
:101AB00004FA08F302EA09021A4317F4403F0260ED
:101AC000A4D0002443F644030294C4F202031A682B
:101AD000AEF57E7742F480421A601A6802F48042C2
:101AE0000292029A2BF0030257F802C00022C4F2BD
:101AF000020290423FF452AF40F20042C4F20202AE
:101B0000019C904208BF012448E700BF03B0BDE834
:101B1000F08F00000069084018BF012070470000E6
:101B200040F23C30C2F2000000687047002804BF59
:101B300001207047F0B581B0044690F83D0028B907
:101B4000002084F83C00204600F07CFA242084F831
:101B50003D002068016821F001010160016841F445
:101B600000410160016821F40041016000F050FC77
:101B7000636848F2A16CC0F2010C40F60011C0F29B
:101B80003D0163453CBF48F28041C0F21E018842DE
:101B900002D2012001B0F0BD4DF68361C4F21B31C9
:101BA000A0FB01122168970CD1F804E04FF496765F
:101BB0002EF03F0545EA92454D60774348F63816CA
:101BC0000D6AC0F24106A7FB067625F03F07634584
:101BD00038BF960C721C3A430A62CA6948F2A06682
:101BE0004CF6FF77C0F20106B34222EA07020BD897
:101BF00001385B00B0FBF3F001306FF31F300428B5
:101C000098BF04201BE000BFA768013857B119270F
:101C10007B43B0FBF3F001306FF31F3070B100F580
:101C2000804007E003EB4303B0FBF3F001306FF3B8
:101C30001F3018B100F5004001E000BF0120104343
:101C4000C8610868D4E9072320F0C0001043184396
:101C50000860886848F2FF3204F10C0790438CCF8B
:101C600018431043A6698860C86820F0FF00384315
:101C70003043C860086840F001000860002020215F
:101C8000206484F83D10206384F83E0001B0F0BD6C
:101C90002DE9F04784B0994616460F460446FFF7F3
:101CA0003FFF94F83D10202927D10546206800BF4A
:101CB000816989071CD5FFF733FF411B20681A296A
:101CC000F6D381698907F3D500202021206384F8A9
:101CD0003D1084F83E00206C04F13C0A40F02000E6
:101CE0002064022000218AF8001004B0BDE8F087CB
:101CF000A2461AF83C1F012904D1022004B0BDE815
:101D0000F08700BF01228AF800200368DDE90D1882
:101D10000C9ADB0703D1036843F0010303600368F7
:101D200023F400630360222084F83D00402084F8FF
:101D30003E000020206462626185608D3946208506
:101D40000020CFF6FF70E062204632464B46CDE9D8
:101D5000008501F011FB18B1012004B0BDE8F08747
:101D6000208D08B3022813D0012835D121680A68D4
:101D700022F480620A60002203924A6903928A690F
:101D80000392039A0A6842F400720A602CE000BFD2
:101D900021680A6822F480620A600A6842F40062DC
:101DA0000A60002203921AE0002003902068416933
:101DB0000391816903910399016841F40071016005
:101DC000202084F83D00002084F83E0000218AF89D
:101DD000001004B0BDE8F0870021039121684A6932
:101DE00003928969039103990427C0F201070CE06B
:101DF00010690870606A218D01306062481E20857C
:101E0000618D013961850104DAD080B203280FD8D1
:101E100002284AD001282DD1204641462A4601F009
:101E200049FD002898D12068616A0069E1E700BF98
:101E3000204641462A4601F03DFD00287FF48CAF44
:101E40002068616A00690870606A2268411C208D00
:101E5000616201382085638D013B638553695B07AF
:101E6000D1D580B20328C3D1106820F480601060FF
:101E7000BEE700BF2046394600224346009501F0E8
:101E8000C7FB00287FF468AF2068616A026822F40B
:101E90008062026000690870606A218D01306062B2
:101EA000481E2085608D0138608520463946002215
:101EB0004346009501F0ACFB00287FF44DAF20684D
:101EC000616A026842F40072026000690870606A28
:101ED0002268411C6162218D01392185618D0139A2
:101EE00061851169417085E72DE9F04383B099461A
:101EF00016460F460446FFF713FE94F83D102029BE
:101F000024D10546206800BF816989071AD5FFF7EB
:101F100007FE411B20681A29F6D381698907F3D58A
:101F200000202021206384F83D1084F83E00216CBD
:101F300041F02001216484F83C00022003B0BDE898
:101F4000F08300BF94F83C10012903D1022003B0B4
:101F5000BDE8F083012284F83C200368DDE90B181A
:101F60000A9ADB0703D1036843F0010303600368A7
:101F700023F400630360212084F83D00402084F8AE
:101F80003E000020206462626185608D39462085B4
:101F90000020CFF6FF70E062204632464B46CDE986
:101FA000008501F073FA18B1012003B0BDE8F08399
:101FB000208D98B9204641462A4601F0CBFA88B3D5
:101FC000206C0428F0D12068016841F400710160A0
:101FD000012003B0BDE8F0830004EBD02046414669
:101FE0002A4601F0AFFC0028EAD1616A226808465F
:101FF00010F8013B1361238D6062581E2085678DA8
:10200000013F678557697F07E6D50704E4D0487824
:102010001061881C6062981E2085618D0139618580
:10202000DAE700BF2068016841F4007101602020F8
:1020300084F83D00002084F83E0084F83C0003B0A2
:10204000BDE8F0832DE9F04387B0006845F6000154
:10205000C4F2000100268842CDE90566CDE9036699
:1020600002962FD045F20041C4F20001884262D1AD
:10207000002443F630050194C4F20205286802A941
:1020800040F002002860286800F0020001900198EA
:102090004FF4407002901220CDE903040320059014
:1020A0000420069040F20040C4F20200FFF75CFCFE
:1020B0000194286940F400102861286900F4001098
:1020C00037E000BF43F630070196C4F202073868D4
:1020D00040F2004440F0020038603868C4F2020464
:1020E00000F00200019001984FF4806002900420FB
:1020F00002AD4FF012084FF0030906902046294622
:10210000CDE90386CDF81490FFF72EFC0820CDE929
:1021100002080920069020462946CDE90469FFF708
:1021200023FC0196386940F480003861386900F476
:1021300080000190019807B0BDE8F08340F20000F4
:1021400040F23C31C2F20000C2F2000100780A689D
:10215000104408607047000080B543F60040C4F2A8
:102160000200016841F400710160016841F480617E
:102170000160016841F480710160032000F086F87D
:102180000F2000F005F800F027F8002080BD0000C7
:1021900070B540F20006C2F2000640F20801327843
:1021A000C2F200014FF47A730968B3FBF2F20446FD
:1021B000B1FBF2F1084600F059FB0F2C4FF001057E
:1021C00008D838B94FF0FF3021460022002500F032
:1021D00031F87460284670BD82B0002043F640019B
:1021E0000190C4F202014A6842F480424A604A689F
:1021F00002F480420192019A0090086840F08050F9
:102200000860086800F080500090009802B07047A5
:10221000002848BF704700F01F01012202FA01F1B7
:102220001C2202EAD0004EF20012CEF200028150CF
:102230007047000010B54EF60C5CCEF2000CDCF8D6
:102240000030C3F3022E8EF00704042C28BF0424B0
:10225000BEF103034FF0FF3E0EFA04F438BF002333
:10226000A14399400EFA03F39A43114300F00F0281
:1022700000F160430901043A03F564436244002815
:1022800048BF02F10C03197010BD00004EF60C514E
:10229000CEF200010A684FF6FF031A4060F30A22EB
:1022A00042F0806040F0FD7008607047002804BF75
:1022B000012070472DE9F04143F60808C4F20208F6
:1022C0000446D8F8F8030D4600F00700814207D90C
:1022D00088F8F853D8F8F80300F00700A84277D13F
:1022E0002068810717D5410705D5D8F8001041F4BB
:1022F000E051C8F80010010705D5D8F8001041F4E6
:102300006041C8F80010D8F80010A26821F0F00170
:102310001143C8F80010C00740D1D8F8F80300F006
:102320000700854207D288F8F853D8F8F80300F080
:102330000700A8424CD12068410707D5D8F8001003
:10234000E26821F4E0511143C8F80010000708D5F5
:10235000D8F80000216920F4604040EAC100C8F8C4
:10236000000000F069F8D8F8001044F6C412C1F378
:102370000311C0F60002515C40F2080220FA01F19C
:1023800040F20400C2F200000068C2F200021160D4
:10239000FFF7FEFE0020BDE8F08100BF6068811EEF
:1023A000022907D258F8081C89015CBF0120BDE84A
:1023B000F08111E0012807D158F8081C89035CBF9F
:1023C0000120BDE8F08107E058F8081C890703D414
:1023D0000120BDE8F08100BFD8F8001021F0030112
:1023E0000843C8F80000FFF79BFB064641F2883718
:1023F000D8F80000616800F00C00B0EB810F8CD0C1
:10240000FFF78EFB801BB842F2D90320BDE8F081B4
:1024100040F2080043F60801C2F20000C4F20201D3
:102420000068096844F6D412C1F38221C0F60002A4
:10243000515CC8407047000010B543F60404C4F274
:1024400002046168C1F3810142F20040C0F2F4006D
:10245000DFE801F002040A0210BD00BF41F20020D3
:10246000C0F27A0010BD00BF216801F03F02216870
:1024700023684902C3F3881106D4A1FB000100239D
:10248000FDF726FF07E000BF41F20020C0F27A000E
:102490004843B0FBF2F021680222C1F3014102EB94
:1024A0004101B0FBF1F010BD002804BF01207047CE
:1024B0002DE9F04182B00446007843F60006C007DB
:1024C000C4F202060CD0B06800F00C00042840F002
:1024D00081803068800303D56068002800F0728135
:1024E000207880071BD5B06810F00C0F09D0B068B9
:1024F00000F00C00082840F087807068400200F16E
:1025000083803068800703D5E068012840F05A8155
:102510003068216920F0F80040EAC100306020787E
:10252000000713D4207840072AD4A569002D00F0B5
:102530004481B06800F00C00082840F0A580012D0F
:1025400040F01281012002B0BDE8F08160690028EE
:1025500000F082800020C4F247200121C0F8801ED4
:10256000FFF7DEFA054600BF706F8007DAD4FFF789
:10257000D7FA401B0228F7D9032002B0BDE8F0814A
:10258000306C5FEAC0080AD400200190306C40F043
:1025900080503064306C00F080500190019847F218
:1025A0000007C4F200073868C00547D4386840F413
:1025B00080703860FFF7B4FA054600BF3868C00580
:1025C0003CD4FFF7ADFA401B0228F7D9032002B034
:1025D000BDE8F081B06800F00C00082803D17068F5
:1025E00040023FF576AF61683068B1F5803F07D0B3
:1025F000B1F5A02F40F09C8040F48020306030681E
:1026000040F4803030609DE0E068002840F2000037
:10261000C4F247205CD001210160FFF781FA054632
:10262000306880073FF574AFFFF77AFA401B022845
:10263000F6D9032002B0BDE8F08100BFA168306F79
:10264000012905D0052955D140F004003067306FCD
:1026500040F00100306757E00020C4F2472000211D
:10266000C0F8801EFFF75CFA054600BF706F800758
:102670007FF558AFFFF754FA401B0228F6D9032024
:1026800002B0BDE8F08100BF0027C4F24727002058
:102690003866FFF745FA022D05460DD130688001F6
:1026A00040F19480FFF73CFA401B02284FF00300F2
:1026B000F4D902B0BDE8F081306880017DD5FFF724
:1026C0002FFA401B02284FF00300F5D9F1E700BFB5
:1026D00000210160FFF724FA054600BF306880073B
:1026E0007FF51DAFFFF71CFA401B02284FF00300D7
:1026F000F4D9DEE720F001003067306F002920F0C8
:102700000400306700F08680FFF70AFA054641F2C0
:10271000883700BF306F800700F18E80FFF700FA26
:10272000401BB842F6D9032002B0BDE8F08100BFDB
:1027300020F4803030603068002920F48020306040
:1027400000F08480FFF7ECF9054600BF3068800395
:102750003FF5C6AEFFF7E4F9401B6428F6D9032025
:1027600002B0BDE8F08100BF7068E16900F480024A
:102770008A4227D1216A00F03F028A4222D147F6DD
:10278000C071626A0140B1EB821F1BD1A16A4FF692
:10279000FF73C903994300F44032A1F580318A42A6
:1027A00010D1E16A00F07062B2EB016F0AD1216BC7
:1027B00000F0E040B0EB017F04D1002002B0BDE8A2
:1027C000F08100BF012002B0BDE8F08104F11C05DA
:1027D0002FCD246B084340EA8210D9034FF6FF72D5
:1027E0009143A1F5803140EA0560084340EA047056
:1027F000706001203866FFF793F904463068800165
:10280000DBD4FFF78DF9001B02284FF00300F5D948
:102810004FE700BFFFF784F9054641F2883700BF54
:10282000306F800708D5FFF77BF9401BB8424FF0A7
:102830000300F5D93DE700BFB8F1000F3FF575AED5
:10284000306C20F0805030646FE600BFFFF768F90D
:10285000054600BF306880037FF542AEFFF760F9A0
:10286000401B64284FF00300F4D922E7411E0020EA
:10287000B0EB116F1CBF012070474EF21002CEF278
:10288000000251604EF62351CEF20001F0230B708E
:10289000072190601160704770470000704700008A
:1028A00090F83C20012A04BF02207047B0B501F126
:1028B00008053CCDD1E900CE23F47C5322F47052BC
:1028C0001A432EF4F0431A432CF4E0431A4324F441
:1028D000C0431A432A43C96922F480420368114362
:1028E0005964002180F83C100020B0BD90F83C20D5
:1028F000012A4FF0020254D010B580F83D20026842
:10290000D2F804E0D2F808C00C682EF0700323431C
:1029100041F2FF74C4F20004A24253600EDC40F2A4
:10292000FF73C4F200039A4216DCB2F1804F2BD041
:1029300040F20043C4F2000324E000BF40F2FF3342
:10294000C4F201039A4213DC41F60003C4F200030F
:102950009A4219D0002313E040F60003C4F20003AA
:102960009A4211D040F60043C4F200030AE000BFCF
:1029700044F20003C4F201039A4205D040F200433E
:10298000C4F201039A4204D149682CF08003194330
:1029900091600121002280F83D1080F83C20BDE8C4
:1029A0001040104670470000C1B1042908D0082922
:1029B00014BF45224422825C012A05D016E000BFE4
:1029C0004322825C012A11D10222082910D0042955
:1029D00014BF80F8452080F843200BE090F8422097
:1029E000012A03D1022280F8422003E0012070472F
:1029F00080F84420006801F00F010422036A02FA03
:102A000001F123EA01020262026A11430162416C90
:102A100041F2FF72C4F2000241F40041904241646D
:102A20000EDC40F2FF71C4F20001884216DCB0F106
:102A3000804F2BD040F20041C4F2000124E000BFDF
:102A400040F2FF31C4F20101884213DC41F600017B
:102A5000C4F20001884219D0002113E040F60001C1
:102A6000C4F20001884211D040F60041C4F20001D6
:102A70000AE000BF44F20001C4F20101884205D01F
:102A800040F20041C4F20101884206D1816801F0A0
:102A90000701062904BF00207047016841F00101C9
:102AA000016000207047000010B5026801F00F0EB1
:102AB0004FF0040C146A0CFA0EF324EA03031362B9
:102AC000136A1362146A41F211131C4206D1D2F840
:102AD00020C040F244441CEA040F0DD0146A1C428A
:102AE00011D1136A40F2444423420CD1136823F0FD
:102AF0000103136007E000BF546C24F400445464E5
:102B0000146A1C42EDD0082912D004290AD00029E9
:102B10004FF0010114BF80F8451080F842100020EA
:102B200010BD00BF012180F84310002010BD00BF80
:102B3000012180F84410002010BD0000002804BFCF
:102B40000120704710B5044690F83D0028B90020D8
:102B500084F83C00204600F01FF8022084F83D0075
:102B60002068211D01F07CFD012084F8460084F8D6
:102B70003E0084F83F0084F8400084F8410084F867
:102B8000420084F8430084F8440084F8450084F847
:102B90003D00002010BD000000680021C4F20101CA
:102BA000884218BF704780B582B00020019043F67C
:102BB0004400C4F202000168002241F001010160FA
:102BC0000068002100F00100019001981920FFF732
:102BD00031FB192002B0BDE88040FFF719BB0000AF
:102BE00090F83C20012A4FF002026CD080B580F8AA
:102BF0003D20D0F800C04FF67772DCF8083023EAA9
:102C00000202CCF808200B684F2B29DC1F2B45DD76
:102C1000202B46D0302B44D0402B40F0AF80D1F851
:102C200004E0C968DCF82030DCF8202022F0010242
:102C3000CCF82020DCF8182022F0F00242EA011142
:102C400023F00A0242EA0E02CCF81810CCF8202039
:102C5000DCF8081041F0470121F0300128E000BF06
:102C60006F2B33DDB3F5005F74D0B3F5805F21D0F7
:102C7000702B40F08380D1E901E3C968DCF80820BB
:102C800043EA0E0322F47F4243EA01211143CCF8C8
:102C90000810DCF8081041F0770109E00BB1102BA7
:102CA0006CD1DCF8081021F07001194341F00701E4
:102CB000CCF808100022012180F83D10002180F896
:102CC0003C10BDE880401046704700BF502B21D01B
:102CD000602B53D1D1F804E0C968DCF82030DCF86F
:102CE000202022F01002CCF82020DCF8182022F45A
:102CF000704242EA013123F0A00242EA0E12CCF8FF
:102D00001810CCF82020DCF8081041F0670121F001
:102D10001001CDE7D1F804E0C968DCF82030DCF818
:102D2000202022F00102CCF82020DCF8182022F02C
:102D3000F00242EA011123F00A0242EA0E02CCF844
:102D40001810CCF82020DCF8081041F0570121F0D1
:102D50002001ADE7D1E901E3C968DCF8082043EAC6
:102D60000E0322F47F4243EA01211143CCF80810FC
:102D7000DCF8081041F480419AE700BF01229AE78D
:102D80007047000070B504460068C5680669B10761
:102D900016D515F0020113D06FF002010161012177
:102DA00021778069800703D02046FFF7E9FF05E01F
:102DB000204600F08FF8204600F0CEF90020207762
:102DC000700719D515F0040016D020686FF00401C3
:102DD000016102212177806910F4407F04D02046F0
:102DE000FFF7CEFF06E000BF204600F073F8204654
:102DF00000F0B2F900202077300717D515F0080051
:102E000014D020686FF00801016104212177C069A6
:102E1000800703D02046FFF7B3FF05E0204600F00F
:102E200059F8204600F098F900202077F00619D5CF
:102E300015F0100016D020686FF010010161082114
:102E40002177C06910F4407F04D02046FFF798FF37
:102E500006E000BF204600F03DF8204600F07CF977
:102E600000202077F00718BF15F0010002D13006CE
:102E700009D412E020686FF001010161204600F0E2
:102E80004BFA300609D515F0800006D020686FF0A7
:102E9000800101612046FFF7FFFC700609D515F09F
:102EA000400006D020686FF040010161204600F02C
:102EB00035FAB00658BF70BD15F0200008D0216863
:102EC0006FF0200220460A61BDE87040FFF7E6BCC3
:102ED00070BD00007047000090F83C30012B04BF2B
:102EE000022070474FEAB202032A00F2FF802DE968
:102EF000F043DFE802F003B13F7F00BF036840F218
:102F000000461C6A1A6A24F0020422F001021A62C6
:102F10001A46D3F804C052F818EF8F6843F480655E
:102F2000C4F20106B54244EA070405D1CF6824F093
:102F30000C0427F004073C430F68B54206D1D1E9E1
:102F400005582CF440762E4346EA080C2EF0730602
:102F50003743C3F804C09F614F6809695F631C620F
:102F60009F6947F008079F619F6927F004079F61E9
:102F7000B1E000BF036840F200481C6A1A6A24F4FA
:102F8000007422F480721A621A46D3F804C052F810
:102F90001CEF8F6843F48065C4F20108454544EA9C
:102FA000072408D1CF6840F2FF463F0224F4406472
:102FB00027EA06063443D1F80090454506D1D1E909
:102FC00005562CF440572E4347EA061C2EF0730793
:102FD00047EA0907C3F804C0DF614F680969DF6386
:102FE0001C62DF6947F00807DF61DF6927F004072B
:102FF000DF6170E0036840F20045D3F820C01A6A30
:1030000043F4806722F480521A621A465C6852F8D0
:103010001C8FD1F800E08E68C4F20105AF4204D1E4
:103020004D6924F4804444EA85142CF4005747EA9F
:10303000063728F4E64646EA0E265C60DE614E68F6
:1030400009691E641F62DF6947F40067DF61DF6999
:1030500027F48067DF613DE0036840F200481C6AA6
:103060001A6A24F0200422F010021A621A46D3F8D9
:1030700004C052F818EF8F6843F48065C4F2010869
:10308000454544EA071407D1CF686FF0400624F0A5
:10309000C00406EA07163443D1F80090454506D12E
:1030A000D1E905562CF440672E4347EA860C2EF4EE
:1030B000E64747EA0927C3F804C09F614F680969DA
:1030C0009F631C629F6947F400679F619F6927F4B3
:1030D00080679F6109021368194311600021BDE8F0
:1030E000F043002280F83C2008467047012100226E
:1030F00080F83C2008467047002804BF0120704734
:1031000010B5044690F83D0028B9002084F83C0032
:10311000204600F01FF8022084F83D002068211DA1
:1031200001F09EFA012084F8460084F83E0084F8FD
:103130003F0084F8400084F8410084F8420084F89D
:10314000430084F8440084F8450084F83D000020E2
:1031500010BD00007047000070470000C1B1042995
:1031600008D0082914BF41224022825C012A05D0E0
:1031700016E000BF3F22825C012A11D102220829F9
:1031800010D0042914BF80F8412080F83F200BE0C4
:1031900090F83E20012A03D1022280F83E2003E06D
:1031A0000120704780F84020006801F01F010122D3
:1031B000036A02FA01F123EA01020262026A114380
:1031C00041F2FF72C4F20002904201620CDC40F254
:1031D000FF71C4F20001884214DCB0F1804F37D097
:1031E00040F2004116E000BF40F2FF31C4F201019D
:1031F000884215DC41F60001C4F20001884227D064
:10320000002115E040F60001C4F2000188421FD001
:1032100040F60041C4F20001884219D01FE000BF0F
:1032200044F20001C4F20101884211D040F2004191
:10323000C4F20101884212D1416C40F2004340F4D3
:103240008062C4F2010341F400419A42416406D114
:10325000816801F00701062904BF0020704701685A
:1032600041F00101016000207047000010B50268C4
:1032700001F01F0E4FF0010C146A0CFA0EF324EA51
:103280000303136240F20043D2F820C042F480648A
:10329000C4F201039C42C2F820C009D1136A41F272
:1032A0001114234204D1136A40F2444423420FD044
:1032B000136A41F21114234213D1136A40F24444B9
:1032C00023420ED1136823F00103136009E000BF0D
:1032D000536C23F400435364136A41F211142342E4
:1032E000EBD0082912D004290AD000294FF001019F
:1032F00014BF80F8411080F83E10002010BD00BFC0
:10330000012180F83F10002010BD00BF012180F88E
:103310004010002010BD0000704700007047000002
:103320000028014618BF0121073818BF01200840B6
:1033300070470000B0B50024C4F202042046012109
:10334000FEF7E8FB0138B0FA80F04009850020461E
:103350000221FEF7DFFB012820464FF0040108BFE1
:103360000235FEF7D7FB0138B0FA80F04009284457
:10337000B0BD0000FEE700002DE9F04782B0044632
:1033800000689A460B9D0A9E0368914643F480624A
:10339000026002680F4642F48071016020464FF0DF
:1033A000011100223346009500F032F950B1206837
:1033B0000068C00544BF4FF400702064032002B0D1
:1033C000BDE8F08740F202082068C0F2010807F06B
:1033D000FE0707612046414632462B4600F0FEF9C3
:1033E00020B1012002B0BDE8F08700BF00200190AD
:1033F00020682A464169019180693146019001980F
:10340000204600F09FFAB0B92068BAF1010F09D048
:103410004FEA19210161204631462A4600F092FA0E
:1034200048B920685FFA89F10161204631462A4691
:1034300000F088FA60B1206C0428D2D120680168BD
:1034400041F400710160012002B0BDE8F08700BFC7
:10345000206800220168334641F4807101602046F3
:103460004FF00111009500F0D3F800289FD147F0EC
:10347000010C27682046414632462B46C7F810C04B
:1034800002B0BDE8F04700F0A9B900002DE9F04313
:1034900083B0044600680F4601680A9D0B9E41F404
:1034A000807199469046016020464FF0011100223C
:1034B0002B46009600F0ACF850B120680068C005BB
:1034C00044BF4FF400702064032003B0BDE8F083D4
:1034D000206807F0FE0101610221C0F201012046CF
:1034E0002A46334600F07AF920B1012003B0BDE846
:1034F000F08300BF002002902068324641690291AB
:103500008069294602900298204600F01BFA58B1C3
:10351000206C0428E9D12068016841F40071016041
:10352000012003B0BDE8F0832068B9F1010F0AD093
:103530004FEA1821016120462946324600F002FA7E
:103540000028E5D120685FFA88F10161002003B00E
:10355000BDE8F08370B50368044653F8140F4007C4
:1035600011D40E46481C29D086BB00BF1868400500
:1035700027D4FEF7D5FA236853F8140F400737D540
:1035800018684007F2D5002070BD00BF18684007DA
:10359000F9D41868400514D418684007F3D41868A3
:1035A00040050ED418684007EDD41868400508D4CB
:1035B000186840074FF0000048BF70BD186840050C
:1035C000E4D56FF480601860042012E0154603E033
:1035D00053F8140F4007D6D418684005F1D4FEF70D
:1035E0009FFA401B2368B042F2D958694007EFD4D4
:1035F000202000212022216384F83D2084F83E1001
:10360000226C10432064012084F83C1070BD00003F
:103610002DE9F041054600681E46144601F47F027C
:1036200001338FB242D0DDF81880B2F5803F40F010
:10363000878040693840C01BB0FA80F0400984425E
:1036400040F0C8804EB924E040693840C01BB0FA51
:1036500080F04009844240F0BD80FEF761FAA0EBA3
:1036600008012868B142EFD941693940C91BB1FA54
:1036700081F149098C42E7D19BE000BF40693840A5
:10368000C01BB0FA80F0400984424FF0000040F0C7
:10369000A280FEF745FA286841693940C91BB1FA92
:1036A00081F149098C42E9D183E000BFB2F5803F46
:1036B00024D100BF41693940C91BB1FA81F14909E0
:1036C0008C4240F0878041693940C91BB1FA81F1D1
:1036D00049098C4240F07E8041693940C91BB1FAEA
:1036E00081F149098C4275D141693940C91BB1FA50
:1036F00081F149098C42DDD06CE000BF816939401D
:10370000C91BB1FA81F149098C4263D18169394001
:10371000C91BB1FA81F149098C425BD181693940F9
:10372000C91BB1FA81F149098C4253D181693940F1
:10373000C91BB1FA81F149098C42DFD04AE000BFD0
:1037400080693840C01BB0FA80F04009844241D102
:1037500046B923E080693840C01BB0FA80F04009C8
:10376000844237D1FEF7DCF9A0EB08012868B142AA
:10377000F0D981693940C91BB1FA81F149098C42FC
:10378000E8D116E080693840C01BB0FA80F04009EB
:1037900084424FF0000018BFBDE8F081FEF7C0F989
:1037A000286881693940C91BB1FA81F149098C4205
:1037B000E8D100202021286385F83D1085F83E00DF
:1037C000296C41F02001296485F83C000120BDE806
:1037D000F08100BF0020BDE8F0810000F0B581B0AD
:1037E000044600681D4643698FB203EA0701B942E7
:1037F00002D1002001B0F0BD4169164601323CD033
:10380000490512D47EB300BFFEF78AF9411B206838
:10381000B14203D941693940B9422BD1416939409C
:10382000B942E6D041694905EED5016841F400711D
:1038300001606FF480614161042000212022216336
:1038400084F83D2084F83E10226C1043206484F8F4
:103850003C10012001B0F0BD41693940B942C8D0E7
:1038600041694905E1D4FEF75BF9206841693940B7
:10387000B942F1D02020E0E741694905D5D441693A
:103880003940B942B5D041694905CED44169394082
:10389000B942AED041694905C7D441693940B942FE
:1038A000A7D041694905C0D441693940B942E3D143
:1038B0009FE7000070B504460068154650F8143FB5
:1038C0005A063DD40E4629B926E000BF50F8141F11
:1038D000490635D40168C90621D4FEF721F9411BF8
:1038E0002068B142F2D941694906EFD40020202175
:1038F000206384F83D1084F83E00206C40F02000E6
:1039000018E000BFFEF70CF9206850F8141F4906B4
:10391000ECD50168490613D40168C906F2D56FF0E9
:103920001001016000202021206384F83D1084F8FC
:103930003E00206C2064002084F83C00012070BD13
:10394000002070BD70B50368044653F8140F0006DC
:1039500011D40E46481C29D086BB00BF186840050C
:1039600027D4FEF7DDF8236853F8140F000637D587
:1039700018680006F2D5002070BD00BF1868000668
:10398000F9D41868400514D418680006F3D41868F0
:1039900040050ED418680006EDD41868400508D418
:1039A000186800064FF0000048BF70BD1868400559
:1039B000E4D56FF480601860042012E0154603E03F
:1039C00053F8140F0006D6D418684005F1D4FEF75A
:1039D000A7F8401B2368B042F2D958690006EFD41B
:1039E000202000212022216384F83D2084F83E100D
:1039F000226C10432064012084F83C1070BD00004C
:103A0000B0B586B08020ADF8120002250DF112008D
:103A1000CDE9000540F2A0206424C2F20000882114
:103A2000002201230294FEF75FFA08B106B0B0BD90
:103A30000A20FDF777FF42F24570ADF8140005A8A3
:103A4000CDE9000540F2A020C2F20000882100224A
:103A500001230294FEF748FA0028E7D146F210202D
:103A6000ADF8160002200DF11601CDE9001040F26C
:103A7000A0206425C2F200008821052201230295BE
:103A8000FEF732FA06B0B0BD70B586B00446022625
:103A900004A8CDE9000640F2A0206425C2F200008F
:103AA0008821022201230295FEF7F2F820B10021BD
:103AB000217606B070BD00BFBDF81000882100BAA5
:103AC000000C20820DF11200CDE9000640F2A0208A
:103AD000C2F20000012201230295FEF7D9F818B1C5
:103AE0000021217606B070BDBDF81200022600BA92
:103AF000000C608205A8CDE9000640F2A0206425F4
:103B0000C2F200008821042201230295FEF7C0F8CA
:103B100020B10021217606B070BD00BFBDF81400B1
:103B2000882100BA000CA0820DF11600CDE9000634
:103B300040F2A020C2F20000032201230295FEF70A
:103B4000A7F818B10021217606B070BD218A9FED3B
:103B50001D1A00EE101AB8EE400AB4F9121020EE49
:103B6000010A84ED000A00EE101A9FED171AB8EE54
:103B7000C00A20EE010A9FED151AB4F91410BDF821
:103B8000160020EE010A84ED010A00EE101A9FEDE6
:103B9000101A00BAB8EEC00A000C20EE010A84ED3B
:103BA000020A00EE100A9FED0B1AB8EE400AE082FE
:103BB00020EE010A0020012184ED030A217606B0DF
:103BC00070BD00BF0AD7A33AACC5273600007A44BF
:103BD0000800203A0C007A3CB0B584B040F2B41032
:103BE00042F2000101230024C2F20000C4F20101EC
:103BF000C0F60073012503944FF48032047680F8F8
:103C00002040C0E90A34C56180F8304080E81600E1
:103C1000C0E903444561FDF777F8002818BFFCF7B9
:103C2000CDFF0520CDE9000540F2B410C2F200003E
:103C300069460294FCF7C6FF002818BFFCF7BEFFD8
:103C400004B0B0BD80B540F2FC1046F20041C2F2B3
:103C50000000C4F200010522002380E80E0000F1FC
:103C60000C014FF4502C4FF4800E81E80850836112
:103C70008383FDF707FD002808BF80BDBDE88040B5
:103C8000FCF79CBF80B540F2242046F60001C2F24A
:103C90000000C4F200010522002380E80E0000F1BC
:103CA0000C014FF4502C4FF4800E81E808508361D2
:103CB0008383FDF7E7FC002808BF80BDBDE8804096
:103CC000FCF77CBF80B586B0002043F6300105903C
:103CD000CDE90300CDE901000090C4F202010A68B9
:103CE00042F080020A600A6802F080020092009AA4
:103CF00000900A6842F001020A600A6802F00102BC
:103D00000092009A0090086840F00200086008687D
:103D100001A900F0020000900098072001904FF4E4
:103D200044100290012003900020C4F20200FDF72D
:103D30001BFE062001210022FEF77CFA0620FEF77A
:103D400067FA072001210022FEF774FA0720FEF728
:103D50005FFA082001210022FEF76CFA0820FEF726
:103D600057FA06B080BD000080B540F24C2045F205
:103D70000041C2F20000C4F2000141F6802200239B
:103D80004FF4804CC0F2060280E80E00C0E9033C0C
:103D9000C0E90533C0E90733FDF7C8FE002808BFB6
:103DA00080BDBDE88040FCF709BF000080B540F24F
:103DB000A02045F60001C2F20000C4F2000141F665
:103DC000802200234FF4804CC0F2060280E80E00EF
:103DD000C0E9033CC0E90533C0E90733FDF7A6FE9F
:103DE000002808BF80BDBDE88040FCF7E7BE0000AA
:103DF0002DE9F0419CB040F2000840F2F420C4F2FA
:103E000001080021C2F2000042F28C021591CDE9B6
:103E100013111191CDE90F11CDE90D11CDE90B1160
:103E2000CDE90911CDE90711CDE90511CDE903115E
:103E3000CDE90111C0E90081C0E90212C0E9041115
:103E40008161FEF77BFE002818BFFCF7B7FE4FF438
:103E50008050129040F2F420C2F2000012A9FEF746
:103E6000BFFE002818BFFCF7A9FE40F2F420C2F202
:103E70000000FFF741F9002818BFFCF79FFE40F251
:103E8000F4200024C2F2000010A9CDE91044FEF78E
:103E90002DFD002818BFFCF791FE6020CDE9090434
:103EA00040F2F420C2F2000009A90022CDE90B443F
:103EB000CDE90D440F94FFF70FF8002818BFFCF769
:103EC0007DFE40F2F420C2F2000009A90422FFF7AF
:103ED00003F8002818BFFCF771FE40F2F420C2F28C
:103EE000000009A90822FEF7F7FF002818BFFCF719
:103EF00065FE0026322040F2F424CDE904064FF49A
:103F00000050C2F20004069001A92046CDE90166E6
:103F100003960896FEF7C4FC002818BFFCF74EFE77
:103F200020681B964045CDE919661896179603D070
:103F30001CB0BDE8F08100BF002643F630001696A5
:103F4000C4F20200016817AC41F001010160016890
:103F5000022701F0010116911699169601680125B4
:103F600041F0020101600068214600F00200169055
:103F700016984FF4F060179008F58030CDE9187668
:103F80001A961B95FDF7F0FC0320CDE9170708F5FD
:103F900082302146CDE919661B95FDF7E5FC1CB082
:103FA000BDE8F081FEE7000040F27400C2F20000BC
:103FB000FCF796BB016846F20040C4F20000814263
:103FC00040F27400C2F200000AD046F60002C4F2C9
:103FD0000002914218BF7047BC30FCF7C7BC00BF5D
:103FE0006030FCF7C3BC000070B540F27404C2F24C
:103FF00000042078002602284FF0000006D194F833
:104000001801FFF78DF9B0FA80F0400994ED492AC4
:1040100094ED481AB3EE043AB4EE432AB3EE0E2AF6
:10402000F1EE10FAB4EE421AB6EE002A94ED470A09
:10403000C8BF0220F1EE10FAB4EE421A4FF00001B0
:10404000B2EE042AC8BF0320F1EE10FAC8BF012166
:10405000B4EE421A9FED1E1AC90705469FED1D2AB0
:1040600018BF0425F1EE10FAB4EE410AA8BF0546C8
:10407000F1EE10FAB4EE420AC8BF0525F1EE10FACF
:104080004FF00000B4EE410AC8BF0120F1EE10FA73
:10409000D8BF01263040002D84F82F0108BF70BD25
:1040A000204684F82E512575FCF7CCFB042094F8AB
:1040B0001821207004F160002946FCF767FC94F891
:1040C000182104F1BC002946BDE87040FCF75EBC35
:1040D0000000A0420000704210B504281ED8012143
:1040E00001FA00F010F0160F08BF10BDFFF722F91B
:1040F0000446FFF715F958B140F27400C2F200000F
:10410000214680F81841BDE81040FCF79FBA00BF77
:1041100040F27400C2F200000121017510BD0000E0
:10412000B0B540F27404C2F2000420464FF4A0710E
:10413000FCF746F92046FCF757FBFCF7B5F9FFF70B
:104140005FFC04F1600540F2FC11C2F20001284658
:10415000FCF7E6FB284600214FF40072FCF7C6FB93
:104160002846012140F20122FCF7C0FB284602212B
:1041700040F20222FCF7BAFB04F1BC0540F2242114
:10418000C2F200012846FCF7CBFB28460E214FF473
:104190000072FCF7ABFB28460F2140F20122FCF72E
:1041A000A5FB2846102140F20222FCF79FFBFDF7F9
:1041B000B7FCC4F83001FDF7B3FCC4F83401FDF7D7
:1041C000AFFCC4F83801FDF7ABFCC4F83C01B0BD4E
:1041D00070B5FDF7A5FC40F27406C2F20006D6F8F1
:1041E00034110446401A0A281ED2D6F83801201A83
:1041F00032283BD296F8AC0018B106F1600000F00E
:1042000079F896F8080118B106F1BC0000F072F8D0
:10421000D6F83C01201A642838BF70BDC6F83C416E
:10422000BDE87040FFF7E0BE06F11800C6F8344163
:10423000FCF754F900284DD006F12C00FFF724FCC0
:10424000002850D006F58E7000F08CF900281EBFB3
:104250000020CCF2C620C6F81C01FFF76BF886F8E8
:104260001801D6F83801201A3228C3D331783289A0
:10427000738806F160052846C6F83841FCF7BAFB9A
:1042800006F5907090EC030A2846FCF7EBFB96EDE0
:10429000470AB6F82C112846FCF732FC31783289EF
:1042A000738806F1BC052846FCF7A4FB06F5907060
:1042B00090EC030A2846FCF7D5FB96ED470AB6F8C2
:1042C0002C112846FCF71CFC96F8AC00002894D171
:1042D00097E700BF708BA6F82C0106F12C00FFF7C2
:1042E000D3FB0028AED1F06A06F59073D6E90D1223
:1042F00007C3A7E7B0B50446FCF728FB002808BFB2
:10430000B0BD40F2022188421AD0B0F5007F13D12F
:1043100094F8400004280FD8B4F8411009BA090CE9
:10432000DFE800F004846C765E0000BF40F27400A9
:10433000C2F20000FCF786FA002084F84C00B0BD01
:1043400094F84000022813DC01282BD00228F3D176
:1043500040F27400C2F2000000F5907090EC030A85
:104360002046FCF77FFB002084F84C00B0BD00BF66
:10437000032825D0FF28DFD140F27405C2F20005E2
:1043800029782A896B882046FCF734FB05F5907064
:1043900090EC030A2046FCF765FB95ED470AB5F85B
:1043A0002C1115E040F27400C2F20000017802897D
:1043B00043882046FCF71EFB002084F84C00B0BD6B
:1043C00040F27400C2F2000090ED470AB0F82C11E0
:1043D0002046FCF795FB002084F84C00B0BD00BFE0
:1043E00040F27400C2F20000002918BF0121FCF75E
:1043F00003FA002084F84C00B0BD00BF40F2740006
:10440000C2F20000FCF7F4F8002084F84C00B0BDC4
:10441000C8087C2890D840F27400C2F20000FCF773
:10442000EDF9002084F84C00B0BD00BF40F27400EC
:10443000C2F20000FCF7EAF9002084F84C00B0BD9D
:10444000FEE70000B0B5044640F2B410C2F200002E
:10445000FCF7BEFD38B940F2B410C2F2000064218E
:10446000FCF736FD10B100212175B0BD40F2B41546
:10447000C2F200052846FCF743FCA0812846FCF761
:104480002FFEA0899FED2D1A00EE100AB8EE400A0B
:1044900020EE010A9FED2A1A9FED2B3A20EE012A09
:1044A000B4EE432AF1EE10FA84ED042A18DA9FEDF7
:1044B000270AB4EE402AF1EE10FA13DD9FED240A2C
:1044C00031EE421A22EE000A80EE010AB5EE400AF1
:1044D000F1EE10FA84ED020A06DC9FED1E0A19E0E7
:1044E0009FED180A84ED020A9FED191A80EE010A69
:1044F00000F06EF99FED181A9FED182A20EE010AC0
:1045000030EE020AB7EE001A81EE000A9FED111A92
:1045100030EE010AB2EE021A20EE011AB1EE042AC0
:1045200081EE021A9FED0E2A0020012184ED000A7F
:10453000217531EE021A84ED011AB0BD00008039F8
:1045400033335340002474495C8F52400AD7233CD4
:1045500000401C46339388C32CBB84390FCF5B3B90
:104560000000004210B586B004466846FFF76AFFB7
:1045700010B106B010BD00BF0099216006B010BD9B
:104580007047000070470000FDF7D8BD70B594B0CB
:1045900007AC20463421FBF713FF002543F640000B
:1045A0000695CDE90455CDE902550195C4F2020006
:1045B0000168022641F080510160006800F08050DF
:1045C0000190019847F200000195C4F200000168D3
:1045D00041F440410160006800F4404001900198BE
:1045E000012007904FF4803008904FF480000E9027
:1045F00004200F906420CDE9100620460D96CDE9E9
:104600001266FDF751FF18B172B600BFFEE700BF9A
:104610000F20CDE902064FF48050CDE9050502A830
:1046200003210495FDF742FE10B172B6FEE700BF0C
:1046300014B070BD4EF68850CEF20000016841F40F
:10464000700101607047000080B540F2F420C2F2B2
:104650000000FEF797FBBDE88040FFF7A5BC000017
:10466000B0B540F6FF3E0568C4F2000E40F2004CC3
:104670007045C4F2010C25DCB0F1804F2FD040F220
:104680000043C4F20003984229D040F60003C4F26C
:104690000003984223D041F6FF73C4F2000398420E
:1046A00028DC70453ADCB0F1804F5BD040F200432B
:1046B000C4F20003984255D040F60003C4F2000350
:1046C0004EE000BF40F60043C4F20003984206D01B
:1046D000604504D00023C4F201039842DBD14B684B
:1046E00025F0700243EA020541F6FF73C4F20003AD
:1046F0009842D6DD43F6FF73C4F2010398421FDCF3
:1047000042F20003C4F2000398422BD00023C4F20B
:104710000103984226D0604524D028E040F60043AB
:10472000C4F2000398421DD041F60003C4F2000316
:10473000984217D041F60043C4F2000310E000BFD6
:1047400044F20003C4F2010398420BD044F6000384
:10475000C4F20103984205D044F20043C4F20103BD
:10476000984204D1CB6825F4407243EA02050A68F6
:104770008C684B69C46240F480648262644504BF03
:1047800009690163026825F0800142F004021943BF
:104790000260012242610160B0BD0000FEE700003E
:1047A000FDF7DAFCFFF7F2FEFFF78CFAFFF720FBCC
:1047B000FFF712FAFFF746FAFFF764FAFFF7D4FAA9
:1047C000FFF7F4FAFFF7ACFCFFF702FDFCE700008F
:1047D00010EE100A10B50023A0F50001B1F1FE4F54
:1047E00067D200BF00F500216FF07E0202EBE15CB2
:1047F000C1F302524FF07E5101EB025100EE901ACC
:10480000A0EBCC5003EB0C0100EE100A51EA0200C1
:1048100036D030EE601A70EE200A9FED3D2A3E48F9
:1048200081EE200A9FED3B1A60EE000A00EE821A2C
:1048300060EE201A61EE810A784401EE101A00EB56
:1048400082009FED362AB8EEC11AD0ED001A344826
:1048500041EE021A784401EE101A00EB8200B8EE25
:10486000C11A90ED002ADFED2F2A01EE222AB0EEC8
:10487000001A72EE200A40EE010A31EEA00A10BDC5
:10488000F7EE000A9FED291A30EE600ADFED260AE6
:1048900000EE201ADFED260A60EE001A40EE010A53
:1048A0009FED241A00EE201A61EE810A30EE200AF4
:1048B00010BD4FF07F41B1EB400F03D2BDE8104077
:1048C00000F046B8B0F1FF4F08BF10BDB5EEC00A0A
:1048D000F1EE10FA06D20120FBF7A1FDBDE8104071
:1048E00000F03AB8B5EEC00AF1EE10FA07D1022096
:1048F000FBF795FD00F022F8B1EE400A10BDDFEDA8
:104900000E0A6FF0160320EE200A10EE100A69E777
:1049100066F1CC3EAAAA2A3F480100000070313F50
:104920004C010000F4FD053821ED423E0A1180BE25
:10493000C1ABAA3EFFFFFFBE0000004BDFED030A44
:10494000B7EE001A81EE200A704700000000000058
:1049500030EE000A70470000DFED020A80EEA00A88
:104960007047000000000000F1EE100A4FF6FF71E2
:10497000C0F2C03120EA010040F04070E1EE100AC0
:1049800070470000000000000030F13D0070643E00
:104990000000A33E0090CF3E0090F83E00400F3F45
:1049A00000E0203F0000000015B78337CDE37B38DF
:1049B0000EE1C53860F69138AF5F0F38E1BC3E3884
:1049C00023F4473900000000000000000102030446
:1049D00006070809000000000102030400030504A3
:1049E000010002000004000102030400104A000854
:1049F000000000201000000028020008204A0008E3
:104A000010000020300900004802000800000000EB
:104A100001000000100000000024F400000000006D
:04000005080001C529
:00000001FF
